{
  "contractName": "OnePay",
  "abi": [
    {
      "constant": true,
      "inputs": [],
      "name": "round_",
      "outputs": [
        {
          "name": "",
          "type": "uint256"
        }
      ],
      "payable": false,
      "stateMutability": "view",
      "type": "function"
    },
    {
      "constant": true,
      "inputs": [],
      "name": "Owner_",
      "outputs": [
        {
          "name": "",
          "type": "address"
        }
      ],
      "payable": false,
      "stateMutability": "view",
      "type": "function"
    },
    {
      "inputs": [],
      "payable": false,
      "stateMutability": "nonpayable",
      "type": "constructor"
    },
    {
      "anonymous": false,
      "inputs": [
        {
          "indexed": true,
          "name": "winAddr",
          "type": "address"
        },
        {
          "indexed": true,
          "name": "wincash",
          "type": "uint256"
        },
        {
          "indexed": true,
          "name": "round",
          "type": "uint256"
        }
      ],
      "name": "Winthdraw",
      "type": "event"
    },
    {
      "constant": false,
      "inputs": [
        {
          "name": "_max",
          "type": "uint256"
        }
      ],
      "name": "UpdataMaxCapSize",
      "outputs": [],
      "payable": false,
      "stateMutability": "nonpayable",
      "type": "function"
    },
    {
      "constant": false,
      "inputs": [
        {
          "name": "_max",
          "type": "uint256"
        }
      ],
      "name": "UpdataOneMaxSize",
      "outputs": [],
      "payable": false,
      "stateMutability": "nonpayable",
      "type": "function"
    },
    {
      "constant": false,
      "inputs": [],
      "name": "payIn",
      "outputs": [
        {
          "name": "",
          "type": "uint256"
        }
      ],
      "payable": true,
      "stateMutability": "payable",
      "type": "function"
    },
    {
      "constant": true,
      "inputs": [
        {
          "name": "_round",
          "type": "uint256"
        }
      ],
      "name": "selectOnePayWinInfo",
      "outputs": [
        {
          "name": "winaddr",
          "type": "address"
        },
        {
          "name": "cash",
          "type": "uint256"
        },
        {
          "name": "index_",
          "type": "uint256"
        }
      ],
      "payable": false,
      "stateMutability": "view",
      "type": "function"
    },
    {
      "constant": true,
      "inputs": [
        {
          "name": "round",
          "type": "uint256"
        }
      ],
      "name": "getKeyByAddressAndRound",
      "outputs": [
        {
          "name": "key",
          "type": "uint256[]"
        }
      ],
      "payable": false,
      "stateMutability": "view",
      "type": "function"
    },
    {
      "constant": true,
      "inputs": [],
      "name": "getAllWinInfo",
      "outputs": [
        {
          "name": "winaddr",
          "type": "address[]"
        },
        {
          "name": "cashpot",
          "type": "uint256[]"
        }
      ],
      "payable": false,
      "stateMutability": "view",
      "type": "function"
    }
  ],
  "bytecode": "0x608060405260016000556001805534801561001957600080fd5b506001600381905550662386f26fc1000060048190555033600260006101000a81548173ffffffffffffffffffffffffffffffffffffffff021916908373ffffffffffffffffffffffffffffffffffffffff160217905550610e77806100806000396000f30060806040526004361061008e576000357c0100000000000000000000000000000000000000000000000000000000900463ffffffff1680632c2509c61461009357806337c30a98146100c057806346d1517c146100eb5780635071a723146101665780635a8629b0146101e85780638e7123201461029c578063ca6e5e66146102f3578063fcddd05614610320575b600080fd5b34801561009f57600080fd5b506100be6004803603810190808035906020019092919050505061033e565b005b3480156100cc57600080fd5b506100d56103da565b6040518082815260200191505060405180910390f35b3480156100f757600080fd5b50610116600480360381019080803590602001909291905050506103e0565b604051808473ffffffffffffffffffffffffffffffffffffffff1673ffffffffffffffffffffffffffffffffffffffff168152602001838152602001828152602001935050505060405180910390f35b34801561017257600080fd5b5061019160048036038101908080359060200190929190505050610457565b6040518080602001828103825283818151815260200191508051906020019060200280838360005b838110156101d45780820151818401526020810190506101b9565b505050509050019250505060405180910390f35b3480156101f457600080fd5b506101fd6104ff565b604051808060200180602001838103835285818151815260200191508051906020019060200280838360005b83811015610244578082015181840152602081019050610229565b50505050905001838103825284818151815260200191508051906020019060200280838360005b8381101561028657808201518184015260208101905061026b565b5050505090500194505050505060405180910390f35b3480156102a857600080fd5b506102b1610606565b604051808273ffffffffffffffffffffffffffffffffffffffff1673ffffffffffffffffffffffffffffffffffffffff16815260200191505060405180910390f35b3480156102ff57600080fd5b5061031e6004803603810190808035906020019092919050505061062c565b005b6103286106c8565b6040518082815260200191505060405180910390f35b600033600260009054906101000a900473ffffffffffffffffffffffffffffffffffffffff1673ffffffffffffffffffffffffffffffffffffffff168173ffffffffffffffffffffffffffffffffffffffff1614151561039d57600080fd5b600083141515156103ad57600080fd5b6001549150818060010192505082600b600084815260200190815260200160002060000181905550505050565b60015481565b60008060006005600085815260200190815260200160002060000160009054906101000a900473ffffffffffffffffffffffffffffffffffffffff16925060056000858152602001908152602001600020600101549150600560008581526020019081526020016000206002015490509193909250565b60606007600083815260200190815260200160002060003373ffffffffffffffffffffffffffffffffffffffff1673ffffffffffffffffffffffffffffffffffffffff1681526020019081526020016000208054806020026020016040519081016040528092919081815260200182805480156104f357602002820191906000526020600020905b8154815260200190600101908083116104df575b50505050509050919050565b606080600860006001815260200190815260200160002080548060200260200160405190810160405280929190818152602001828054801561059657602002820191906000526020600020905b8160009054906101000a900473ffffffffffffffffffffffffffffffffffffffff1673ffffffffffffffffffffffffffffffffffffffff168152602001906001019080831161054c575b5050505050915060096000600181526020019081526020016000208054806020026020016040519081016040528092919081815260200182805480156105fb57602002820191906000526020600020905b8154815260200190600101908083116105e7575b505050505090509091565b600260009054906101000a900473ffffffffffffffffffffffffffffffffffffffff1681565b600033600260009054906101000a900473ffffffffffffffffffffffffffffffffffffffff1673ffffffffffffffffffffffffffffffffffffffff168173ffffffffffffffffffffffffffffffffffffffff1614151561068b57600080fd5b6000831415151561069b57600080fd5b6001549150818060010192505082600b600084815260200190815260200160002060010181905550505050565b60008060008060003460045481141515610725576040517f08c379a0000000000000000000000000000000000000000000000000000000008152600401808060200182810382526000815260200160200191505060405180910390fd5b3394503493506001549250836005600060015481526020019081526020016000206001016000828254019250508190555061075e6108ae565b9150600a60008481526020019081526020016000208290806001815401808255809150509060018203906000526020600020016000909192909190915055508460066000858152602001908152602001600020600084815260200190815260200160002060006101000a81548173ffffffffffffffffffffffffffffffffffffffff021916908373ffffffffffffffffffffffffffffffffffffffff1602179055506007600084815260200190815260200160002060008673ffffffffffffffffffffffffffffffffffffffff1673ffffffffffffffffffffffffffffffffffffffff168152602001908152602001600020829080600181540180825580915050906001820390600052602060002001600090919290919091505550600354600a60008581526020019081526020016000208054905014156108a3576108a261099b565b5b819550505050505090565b6000600160008082825401925050819055503342600054604051602001808473ffffffffffffffffffffffffffffffffffffffff1673ffffffffffffffffffffffffffffffffffffffff166c0100000000000000000000000002815260140183815260200182815260200193505050506040516020818303038152906040526040518082805190602001908083835b602083101515610962578051825260208201915060208101905060208303925061093d565b6001836020036101000a03801982511681845116808217855250505050505090500191505060405180910390206001900460ff16905090565b60008060008060008060006001549650600a6000888152602001908152602001600020805490509550853342600154604051602001808473ffffffffffffffffffffffffffffffffffffffff1673ffffffffffffffffffffffffffffffffffffffff166c0100000000000000000000000002815260140183815260200182815260200193505050506040516020818303038152906040526040518082805190602001908083835b602083101515610a675780518252602082019150602081019050602083039250610a42565b6001836020036101000a038019825116818451168082178552505050505050905001915050604051809103902060019004811515610aa157fe5b069450600a600088815260200190815260200160002085815481101515610ac457fe5b9060005260206000200154935060066000888152602001908152602001600020600085815260200190815260200160002060009054906101000a900473ffffffffffffffffffffffffffffffffffffffff169250600560006001548152602001908152602001600020600101549150606460558302811515610b4257fe5b0490508273ffffffffffffffffffffffffffffffffffffffff166108fc829081150290604051600060405180830381858888f19350505050158015610b8b573d6000803e3d6000fd5b50600260009054906101000a900473ffffffffffffffffffffffffffffffffffffffff1673ffffffffffffffffffffffffffffffffffffffff166108fc8284039081150290604051600060405180830381858888f19350505050158015610bf6573d6000803e3d6000fd5b508260056000600154815260200190815260200160002060000160006101000a81548173ffffffffffffffffffffffffffffffffffffffff021916908373ffffffffffffffffffffffffffffffffffffffff16021790555084600560008981526020019081526020016000206002018190555060086000600181526020019081526020016000208390806001815401808255809150509060018203906000526020600020016000909192909190916101000a81548173ffffffffffffffffffffffffffffffffffffffff021916908373ffffffffffffffffffffffffffffffffffffffff1602179055505060096000600181526020019081526020016000208290806001815401808255809150509060018203906000526020600020016000909192909190915055506001600081548092919060010191905055506001870196506000600b600089815260200190815260200160002060000154141515610d7957600b600088815260200190815260200160002060000154600381905550610d97565b600354600b6000898152602001908152602001600020600001819055505b6000600b600089815260200190815260200160002060010154141515610dd957600b600088815260200190815260200160002060010154600481905550610df7565b600454600b6000898152602001908152602001600020600101819055505b60018703965086818473ffffffffffffffffffffffffffffffffffffffff167f26d36c27846149ab0b73a2cacd39db4c659bf682cf61cb196662f2598b2b2d4460405160405180910390a4505050505050505600a165627a7a72305820a8bc7a1383fe1821992312806b39961c0abf5718b2221ce5cbfafcaec31f02fd0029",
  "source": "pragma solidity ^0.4.24;\r\ncontract OnePay{\r\n    //每期奖池上限为：50ether 达到上限自动开奖 玩家单次投入为0.01个ether，每次只能投入一次\r\n    //测试时将合约奖池上限设定为0.1 ether\r\n  \r\n    //开奖种子\r\n    uint256 seed_=1;\r\n    //开奖期数\r\n    uint256 public round_=1;\r\n    //合约维护者：可以暂时是合约发布者\r\n    address public Owner_;\r\n    //每期信息\r\n    struct OnePayWinInfo{\r\n        address  winAddrInfo;\r\n        uint256  cashpotInfo;\r\n        uint256 index;\r\n    }\r\n    //奖池上限 \r\n    uint256  MAX_CAP;\r\n    //单个投注上线 \r\n    uint256  One_Max;\r\n    //构建每期信息映射\r\n    mapping(uint256 => OnePayWinInfo) InfoMapping_ ;\r\n    //构建玩家映射\r\n    mapping(uint256 => mapping(uint256 => address)) PlayEd_;\r\n    mapping(uint256 => mapping(address => uint256[])) AllKey_;\r\n\r\n    //保持全部获奖地址\r\n    mapping(uint256 =>  address[]) AllwinAddrInfo;\r\n    //保持所有期数的奖池\r\n    mapping(uint256 =>  uint256[]) AllcashpotInfo;\r\n    //构建开奖映射\r\n    mapping(uint256 => uint256[]) roundIds_;\r\n    //限定单次投入大小  \r\n    //上限结构\r\n    struct One_MaxAndMAX_CAP{\r\n        uint256 MAX_CAPs;\r\n        uint256 One_Maxs;\r\n    }\r\n\r\n    //上限映射\r\n    mapping (uint256=>One_MaxAndMAX_CAP)  One_MaxAndMAX_CAPMap;\r\n    modifier ethLimit(uint256 _value){\r\n        require(_value==One_Max,\"\");\r\n        _;\r\n    }\r\n    modifier OnlyOwner(address Addr){\r\n        require(Addr==Owner_);\r\n        _;\r\n    }\r\n    \r\n    //开奖事件\r\n    event Winthdraw(address indexed winAddr,uint256 indexed wincash,uint256 indexed round);\r\n    //修改奖池上限   \r\n    function UpdataMaxCapSize(uint256 _max) OnlyOwner(msg.sender) public{\r\n        require(_max!=0);\r\n        uint256 roudn=round_;\r\n        roudn++;\r\n        One_MaxAndMAX_CAPMap[roudn].MAX_CAPs=_max;\r\n        \r\n    }\r\n    //修改单次投入上限 \r\n     function UpdataOneMaxSize(uint256 _max) OnlyOwner(msg.sender) public{\r\n            require(_max!=0);\r\n            uint256 roudn=round_;\r\n            roudn++;\r\n          One_MaxAndMAX_CAPMap[roudn].One_Maxs=_max;\r\n    }\r\n    //构造函数：规定合约部署者为合约管理者\r\n    constructor() public{\r\n         MAX_CAP=1;\r\n         One_Max=0.01 ether;\r\n         Owner_=msg.sender;\r\n    }\r\n     //种子变化\r\n    function mint() internal returns(uint256 ){\r\n        seed_ += 1; \r\n        return uint8(keccak256(abi.encodePacked(msg.sender,now,seed_)));\r\n    }\r\n    //投注\r\n    function payIn()  public payable ethLimit(msg.value) returns(uint256 ){\r\n        address player=msg.sender;\r\n        uint256 value=msg.value;\r\n        uint256 round=round_;\r\n        InfoMapping_[round_].cashpotInfo+=value;\r\n        uint256 luckyId=mint();\r\n        roundIds_[round].push(luckyId);\r\n        PlayEd_[round][luckyId]=player; \r\n        AllKey_[round][player].push(luckyId);\r\n        //奖池上限\r\n        if(roundIds_[round].length ==MAX_CAP){\r\n             withdraw();\r\n             \r\n            }\r\n            return luckyId;\r\n        \r\n        }\r\n    //开奖\r\n    function withdraw() internal {\r\n        uint256 round=round_;\r\n        uint256 poolSize=roundIds_[round].length;\r\n        uint256 index=uint256(keccak256(abi.encodePacked(msg.sender,now,round_)))%poolSize;\r\n        uint256 winId=roundIds_[round][index];\r\n        address winAddr=PlayEd_[round][winId];\r\n        uint256 cashpot=InfoMapping_[round_].cashpotInfo;\r\n        uint256 wincash= cashpot * 85 /100;\r\n        winAddr.transfer(wincash);\r\n        \r\n        Owner_.transfer(cashpot-wincash);\r\n        InfoMapping_[round_].winAddrInfo =winAddr;\r\n        InfoMapping_[round].index=index;\r\n        AllwinAddrInfo[1].push(winAddr);\r\n        AllcashpotInfo[1].push(cashpot);\r\n        round_++;\r\n        round=round+1;\r\n        if( One_MaxAndMAX_CAPMap[round].MAX_CAPs!=0){\r\n            MAX_CAP=One_MaxAndMAX_CAPMap[round].MAX_CAPs;\r\n        }else{\r\n           One_MaxAndMAX_CAPMap[round].MAX_CAPs=MAX_CAP;\r\n        }\r\n        if( One_MaxAndMAX_CAPMap[round]. One_Maxs!=0){\r\n             One_Max=One_MaxAndMAX_CAPMap[round]. One_Maxs;\r\n        }else{\r\n             One_MaxAndMAX_CAPMap[round]. One_Maxs=One_Max;\r\n        }\r\n        round=round-1;\r\n        emit Winthdraw(winAddr,wincash,round);\r\n       \r\n    }\r\n    //获取开奖信息，通过期数\r\n    function selectOnePayWinInfo(uint256 _round) public view returns(address winaddr,uint256 cash,uint256 index_){\r\n        winaddr=InfoMapping_[_round].winAddrInfo;\r\n        cash=InfoMapping_[_round].cashpotInfo;\r\n        index_=InfoMapping_[_round].index;\r\n    }\r\n    //玩家获取当期个人所有彩票\r\n    function getKeyByAddressAndRound(uint256 round) public view returns(uint256[] key){\r\n        key=AllKey_[round][msg.sender];\r\n    }\r\n\r\n    //获取所有的开奖信息\r\n    function getAllWinInfo()public view returns(address[] winaddr ,uint256[]cashpot){\r\n         winaddr= AllwinAddrInfo[1];\r\n         cashpot=AllcashpotInfo[1];\r\n        \r\n    }\r\n   \r\n}",
  "sourcePath": "F:\\Truffle-Dapp\\newOnepay-Dapp\\contracts\\OnePay.sol",
  "compiler": {
    "name": "solc",
    "version": "0.4.24+commit.e67f0147.Emscripten.clang"
  },
  "schemaVersion": "2.0.1",
  "updatedAt": "2018-11-20T09:24:07.154Z"
}